:020000040800F2
:1000000000000520F54F0008BD0D0008BF0D0008D9
:10001000C10D0008C30D0008C50D00080000000058
:10002000000000000000000000000000614D00081A
:10003000C70D000800000000014E0008654E0008D2
:10004000455000084550000845500008455000083C
:10005000455000084550000845500008455000082C
:10006000455000084550000845500008455000081C
:10007000455000084550000845500008455000080C
:1000800045500008455000084550000845500008FC
:1000900045500008455000084550000845500008EC
:1000A00045500008C90D000845500008455000089B
:1000B00045500008455000084550000845500008CC
:1000C00045500008455000084550000845500008BC
:1000D00045500008455000084550000845500008AC
:1000E000455000084550000845500008455000089C
:1000F000455000084550000845500008455000088C
:10010000455000084550000845500008455000087B
:10011000455000084550000845500008455000086B
:10012000455000084550000845500008455000085B
:10013000455000084550000845500008455000084B
:10014000455000084550000845500008455000083B
:10015000455000084550000845500008455000082B
:10016000455000084550000845500008455000081B
:1001700045500008455000084550000800000000A8
:1001800045500008455000084550000845500008FB
:1001900045500008455000084550000845500008EB
:1001A00045500008455000084550000845500008DB
:1001B00045500008455000084550000845500008CB
:0801C0004550000845500008FD
:1001D00010B5054C237833B9044B13B10448AFF381
:1001E00000800123237010BD740000200000000077
:1001F0005460000808B5034B1BB103490348AFF333
:10020000008008BD00000000780000205460000855
:1002100001F0FF01102A2BDB10F0070F08D010F8B7
:10022000013B013A8B422DD010F0070F42B3F6D1BB
:10023000F0B441EA012141EA014122F007047FF0D4
:1002400000070023F0E80256083C85EA010586EA2B
:10025000010685FA47F5A3FA87F586FA47F6A5FA67
:1002600087F68EB9EED1F0BC01F0FF0102F0070273
:1002700032B110F8013B013A83EA010313B1F8D11E
:100280000020704701387047002D06BF35460338FF
:10029000073815F0010F07D1013015F4807F02BF38
:1002A000013015F4C03F0130F0BC0138704700BF89
:1002B00081F0004102E000BF83F0004330B54FEA17
:1002C00041044FEA430594EA050F08BF90EA020F84
:1002D0001FBF54EA000C55EA020C7FEA645C7FEA17
:1002E000655C00F0E2804FEA5454D4EB5555B8BF3A
:1002F0006D420CDD2C4480EA020281EA030382EAAB
:10030000000083EA010180EA020281EA0303362D3C
:1003100088BF30BD11F0004F4FEA01314FF4801C0F
:100320004CEA113102D0404261EB410113F0004F21
:100330004FEA03334CEA133302D0524263EB4303D8
:1003400094EA050F00F0A780A4F10104D5F1200E76
:100350000DDB02FA0EFC22FA05F2801841F10001D1
:1003600003FA0EF2801843FA05F359410EE0A5F1A5
:1003700020050EF1200E012A03FA0EFC28BF4CF0D6
:10038000020C43FA05F3C01851EBE37101F000458C
:1003900007D54FF0000EDCF1000C7EEB00006EEB99
:1003A0000101B1F5801F1BD3B1F5001F0CD3490823
:1003B0005FEA30004FEA3C0C04F101044FEA44527A
:1003C00012F5800F80F09A80BCF1004F08BF5FEA01
:1003D000500C50F1000041EB045141EA050130BDE1
:1003E0005FEA4C0C404141EB0101013C28BFB1F5F3
:1003F000801FE9D291F0000F04BF01460020B1FA3E
:1004000081F308BF2033A3F10B03B3F120020CDA10
:100410000C3208DD02F1140CC2F10C0201FA0CF0EE
:1004200021FA02F10CE002F11402D8BFC2F1200C53
:1004300001FA02F120FA0CFCDCBF41EA0C01904009
:10044000E41AA2BF01EB0451294330BD6FEA040452
:100450001F3C1CDA0C340EDC04F11404C4F120023D
:1004600020FA04F001FA02F340EA030021FA04F34F
:1004700045EA030130BDC4F10C04C4F1200220FAA6
:1004800002F001FA04F340EA0300294630BD21FAE4
:1004900004F0294630BD94F0000F83F4801306BFAA
:1004A00081F480110134013D4EE77FEA645C18BF9E
:1004B0007FEA655C29D094EA050F08BF90EA020F35
:1004C00005D054EA000C04BF1946104630BD91EA2D
:1004D000030F1EBF0021002030BD5FEA545C05D130
:1004E0004000494128BF41F0004130BD14F580046F
:1004F0003CBF01F5801130BD01F0004545F0FE41E3
:1005000041F470014FF0000030BD7FEA645C1ABF17
:10051000194610467FEA655C1CBF0B46024650EA4E
:10052000013406BF52EA033591EA030F41F400217A
:1005300030BD00BF90F0000F04BF0021704730B500
:100540004FF4806404F132044FF000054FF00001D5
:1005500050E700BF90F0000F04BF0021704730B596
:100560004FF4806404F1320410F0004548BF40426B
:100570004FF000013EE700BF42004FEAE2014FEAC0
:1005800031014FEA02701FBF12F07F4393F07F4F9B
:1005900081F06051704732F07F4208BF704793F09E
:1005A0007F4F04BF41F40021704730B54FF46074B1
:1005B00001F0004521F000411CE700BF50EA0102B4
:1005C00008BF704730B54FF000050AE050EA01025D
:1005D00008BF704730B511F0004502D5404261EBCD
:1005E00041014FF4806404F132045FEA915C3FF40E
:1005F000D8AE4FF003025FEADC0C18BF03325FEAAB
:10060000DC0C18BF033202EBDC02C2F1200300FA5B
:1006100003FC20FA02F001FA03FE40EA0E0021FA80
:1006200002F11444BDE600BF53B94AB9002908BF1E
:1006300000281CBF4FF0FF314FF0FF3000F074B9BD
:10064000ADF1080C6DE904CE00F006F8DDF804E029
:10065000DDE9022304B070472DE9F047089D044608
:100660008E46002B4DD18A42944669D9B2FA82F265
:1006700052B101FA02F3C2F1200120FA01F10CFAA1
:1006800002FC41EA030E94404FEA1C48210CBEFBD9
:10069000F8F61FFA8CF708FB16E341EA034306FB62
:1006A00007F199420AD91CEB030306F1FF3080F0F1
:1006B0001F81994240F21C81023E63445B1AA4B23E
:1006C000B3FBF8F008FB103344EA034400FB07F7E0
:1006D000A7420AD91CEB040400F1FF3380F00A8121
:1006E000A74240F207816444023840EA0640E41B16
:1006F00000261DB1D4400023C5E900433146BDE8C2
:10070000F0878B4209D9002D00F0EF800026C5E963
:10071000000130463146BDE8F087B3FA83F6002E7B
:100720004AD18B4202D3824200F2F980841A61EBF3
:10073000030301209E46002DE0D0C5E9004EDDE711
:1007400002B9FFDEB2FA82F2002A40F09280A1EBF9
:100750000C014FEA1C471FFA8CFE0126200CB1FB4E
:10076000F7F307FB131140EA01410EFB03F0884247
:1007700008D91CEB010103F1FF3802D2884200F2D4
:10078000CB804346091AA4B2B1FBF7F007FB101166
:1007900044EA01440EFB00FEA64508D91CEB040404
:1007A00000F1FF3102D2A64500F2BB800846A4EB5F
:1007B0000E0440EA03409CE7C6F12007B34022FA4A
:1007C00007FC4CEA030C20FA07F401FA06F31C4379
:1007D000F9404FEA1C4900FA06F3B1FBF9F8200C86
:1007E0001FFA8CFE09FB181140EA014108FB0EF0CC
:1007F000884202FA06F20BD91CEB010108F1FF3A1C
:1008000080F08880884240F28580A8F10208614427
:10081000091AA4B2B1FBF9F009FB101144EA014135
:1008200000FB0EFE8E4508D91CEB010100F1FF34E0
:100830006CD28E456AD90238614440EA0840A0FB78
:100840000294A1EB0E01A142C846A64656D353D04E
:100850005DB1B3EB080261EB0E0101FA07F722FA72
:1008600006F3F1401F43C5E9007100263146BDE89B
:10087000F087C2F12003D8400CFA02FC21FA03F3FE
:10088000914001434FEA1C471FFA8CFEB3FBF7F07F
:1008900007FB10360B0C43EA064300FB0EF69E42A4
:1008A00004FA02F408D91CEB030300F1FF382FD23D
:1008B0009E422DD9023863449B1B89B2B3FBF7F6E5
:1008C00007FB163341EA034106FB0EF38B4208D9BE
:1008D0001CEB010106F1FF3816D28B4214D9023EFF
:1008E0006144C91A46EA004638E72E46284605E71D
:1008F0000646E3E61846F8E64B45A9D2B9EB0208EE
:1009000064EB0C0E0138A3E74646EAE7204694E77D
:100910004046D1E7D0467BE7023B614432E73046B0
:1009200009E76444023842E7704700BF2DE9F04F01
:100930008FB0002409940A940B940C940D94654B89
:100940001A6B42F004021A631A6B02F0040201925D
:10095000019A1A6B42F020021A631A6B02F020020D
:100960000292029A1A6B42F080021A631A6B02F02A
:1009700080020392039A1A6B42F001021A631A6B07
:1009800002F001020492049A1A6B42F002021A6306
:100990001A6B02F002020592059A1A6B42F01002DD
:1009A0001A631A6B02F010020692069A1A6B42F052
:1009B00008021A631A6B02F008020792079A1A6B70
:1009C00042F040021A631B6B03F040030893089B3C
:1009D000DFF81891224644F28101484601F00BFCF1
:1009E0003D4F22464021384601F005FC4FF4005AA5
:1009F000CDF824A0394B0A930B94DFF8F4B009A981
:100A0000584601F0FFFA3223099302260A960B9406
:100A100003250C954FF00B08CDF8348009A95846F2
:100A200001F0F0FA862309930A960B940C95CDF801
:100A3000348009A92A4801F0E5FA44F281030993B8
:100A40004FF0010BCDF828B00B940C9409A948463F
:100A500001F0D8FACDF824A00A940B9409A92148F2
:100A600001F0D0FACDF824A00A960B940C95CDF89D
:100A7000348009A9484601F0C5FA4FF44073099340
:100A80000A960B940C9507230D9309A9164801F0BB
:100A9000B9FA40230993CDF828B00B940C9409A916
:100AA000384601F0AFFA802309930A940B9409A900
:100AB000384601F0A7FA4FF4205309930A960B9495
:100AC0000C95CDF8348009A9384601F09BFA0FB097
:100AD000BDE8F08F003802400018024000001110FD
:100AE0000000024000100240000C024000040240DE
:100AF0000008024008B5012003F088FFFBE708B5B5
:100B0000012003F083FFFBE708B5012003F07EFF1F
:100B1000FBE7000008B500F08DFB10EE100AFFF7B0
:100B20002BFD02460B46044804F0C8FA4FF47A70D5
:100B300001F08EFBEFE700BF6C60000808B50268AB
:100B4000034B9A4200D008BD01F070FBFBE700BFE9
:100B50000000014072B6FEE708B50B484FF0A04315
:100B60000360062343600222C260002303618261A6
:100B70000122C26103624362C262036302F026F98A
:100B800000B908BDFFF7E6FFE000002008B50B48FC
:100B90000B4B03604FF4E133436000238360C36079
:100BA00003610C2242618361C3610362436202F00C
:100BB000DCF800B908BDFFF7CDFF00BF48050020F5
:100BC0000044004008B51148114B0360114B4360CD
:100BD000002383600122C260036143618361C361BA
:100BE000036201F049FB50B90021084801F0A2FB63
:100BF00038B90021054801F0CBFB20B908BDFFF74B
:100C0000A9FFFFF7A7FFFFF7A5FF00BF9400002093
:100C1000005800403917300008B50F480F4B0360EB
:100C20004FF482734360002383604FF47062C260AC
:100C30000361012242614FF400728261C361036269
:100C4000436283620722C2620363436301F0CCFB09
:100C500000B908BDFFF77EFFE4040020003001402A
:100C600000B5B5B03022002128A804F01FFA0021F9
:100C700023912491259126912791842202A804F0A2
:100C800015FA01F0BFFA264B1A6C42F080521A6432
:100C90001B6C03F080530093009B224A136823F4DB
:100CA000404343F480431360136803F440430193CB
:100CB000019B012328934FF4A023299302232E9311
:100CC0004FF480022F9204223092482231923293C4
:100CD0000323339328A800F041FBD0B90F232393BB
:100CE00002212491002325934FF4805226922793CA
:100CF00023A800F0B7FD70B90B4B029300231493A7
:100D00001C93219302A800F0A7FE30B935B05DF81E
:100D100004FBFFF71FFFFFF71DFFFFF71BFF00BFDF
:100D200000380240007000408080200008B501F0CB
:100D300071FAFFF795FFFFF7F9FDFFF70DFFFFF7DA
:100D400025FFFFF73FFFFFF767FF03F0B1FD0F4AF5
:100D500000210F4803F0EEFD0E4B18600E4A0021F3
:100D60000E4803F0E7FD0E4B18600E4A00210E48B6
:100D700003F0E0FD0D4B18600D4A00210D4803F013
:100D8000D9FD0D4B186003F0B1FDFEE7A860000827
:100D9000F50A000890000020CC600008150B000840
:100DA000CC050020F0600008FF0A0008D0050020F4
:100DB00014610008090B0008D4050020FEE7FEE7D7
:100DC000FEE7FEE7FEE7704708B5024801F0CEFBFC
:100DD00008BD00BFD805002000B583B00D4B1A6CCC
:100DE00042F080521A641A6C02F080520092009A0B
:100DF0005A6C42F480425A645B6C03F48043019362
:100E0000019B00220F216FF0010000F063FA03B094
:100E10005DF804FB0038024010B588B0002303934E
:100E200004930593069307930268134B9A4201D0EB
:100E300008B010BD114C236B43F020032363236BD8
:100E400003F020030193019B0323039312220492D6
:100E50000122059206930423079303A9084801F091
:100E6000D1F8236C43F480032364236C03F48003E0
:100E70000293029BDCE700BF0058004000380240AC
:100E80000014024070B588B00023039304930593C7
:100E90000693079302681D4B9A4201D008B070BDBB
:100EA00003F584335A6C42F480525A645A6C02F44B
:100EB00080520092009A1A6B42F001021A631A6B78
:100EC00002F001020192019A1A6B42F002021A63C7
:100ED0001B6B03F002030293029B60230393022621
:100EE0000496032506950524079403A9084801F0F4
:100EF00089F820230393049600230593069507940D
:100F000003A9044801F07EF8C8E700BF00300140A3
:100F1000000002400004024070B588B00023039333
:100F2000049305930693079302681D4B9A4201D0E0
:100F300008B070BD03F5FA331A6C42F400321A643B
:100F40001A6C02F400320092009A1A6B42F001020D
:100F50001A631A6B02F001020192019A1A6B42F0B5
:100F600008021A631B6B03F008030293029B082319
:100F7000039302260496032506950724079403A9E4
:100F8000084801F03FF820230393049600230593BB
:100F90000695079403A9044801F034F8C8E700BF98
:100FA0000044004000000240000C024030B589B00F
:100FB0000023039304930593069307930368B3F107
:100FC000A04F01D009B030BD1A4C236B43F0010390
:100FD0002363236B03F001030093009B4FF4E8535A
:100FE000039302230493032306930A230793124DCA
:100FF00003A9284601F006F84FF400730393002379
:101000000493059303A9284600F0FCFF636B43F0AB
:1010100080036363636B03F080030193019B636C44
:1010200043F480436364636C03F480430293029B44
:10103000C8E700BF003802400000024000B589B098
:1010400001460022192000F045F9192000F078F936
:10105000144B5A6C42F001025A645B6C03F00103BA
:101060000193019B02A903A800F0D8FC00F0C6FC84
:101070000D4BA3FB00239B0C013B0C480C4A026068
:1010800040F2E732C260436000230361836001F0F5
:10109000C3FB18B1012009B05DF804FB034801F05F
:1010A00019FAF8E70038024083DE1B43D805002018
:1010B0000000014000B587B0002301930293039321
:1010C0000493059301910123029301A900F09AFF73
:1010D00007B05DF804FB00B587B0002301930293CD
:1010E00003930493059301910123039301A900F055
:1010F00089FF07B05DF804FB10B5134C4FF40051A5
:101100002046FFF7D7FF00224FF40051204601F0A0
:1011100072F84FF4F07002F093F84FF4005120464B
:10112000FFF7D9FF502002F08BF84FF40051204612
:1011300001F05AF830B901244FF4C87002F080F879
:10114000204610BDFF24F7E70010024070B50646A8
:101150004FF400511C48FFF7ADFF002414E01A4D76
:101160004FF400512846FFF7A5FF00224FF400512D
:10117000284601F040F83C2002F062F84FF400519C
:101180002846FFF7A8FF0134072C1CDC46FA04F3BD
:1011900013F0010FE3D00C4D4FF400512846FFF738
:1011A00089FF00224FF40051284601F024F8012065
:1011B00002F046F84FF400512846FFF78CFF3C2020
:1011C00002F03EF8DFE770BD0010024070B54FF44A
:1011D00000511748FFF77FFF00252E4603E03C2013
:1011E00002F02EF80135072D1FDC114C4FF4005191
:1011F0002046FFF75FFF00224FF40051204600F029
:10120000FAFF022002F01CF84FF400512046FFF7CD
:1012100062FF4FF40051204600F0E6FF0028DED0C8
:101220000123AB401E43F6B2D9E7304670BD00BF84
:101230000010024010B5FFF75FFF184C207001202E
:1012400001F006F8CC20FFF781FF4420FFF77EFF76
:101250004FF4487000F0FCFFFFF74EFF2070CC20E9
:10126000FFF774FFBE20FFF771FFFFF7AFFF0C4CD5
:101270002070FFF7ABFF0B4B1870237843EA002078
:10128000094B188007EE900AB8EE670AF6EE007A6E
:1012900020EE270A054B83ED000A10BD240600202E
:1012A0002806002029060020260600202C06002003
:1012B0000649CB6823F4E0631B041B0C000200F416
:1012C000E0600343024A1A43CA60704700ED00E041
:1012D0000000FA0500B5174BDB68C3F30223C3F126
:1012E000070CBCF1040F28BF4FF0040C03F1040EEF
:1012F000BEF1060F14D9033B4FF0FF3E0EFA0CFC73
:1013000021EA0C0199400EFA03F322EA0303194380
:10131000002807DB0901C9B2074B19545DF804FB2B
:101320000023E9E700F00F000901C9B2034B19548B
:10133000F4E700BF00ED00E000E400E014ED00E0A1
:10134000002807DB00F01F02400901239340024AF6
:1013500042F82030704700BF00E100E0002800F0B4
:10136000FF8170B582B00446036813F0010F29D0E5
:10137000954B9B6803F00C03042B1AD0924B9B688F
:1013800003F00C03082B0FD06368B3F5803F40D007
:10139000002B54D18C4B1A6822F480321A601A68E0
:1013A00022F480221A6039E0874B5B6813F4800FC7
:1013B000EAD0854B1B6813F4003F03D06368002B11
:1013C00000F0D081236813F0020F74D07E4B9B682D
:1013D00013F00C0F5ED07C4B9B6803F00C03082BC2
:1013E00053D0E368002B00F08980774A136843F0FC
:1013F0000103136000F026FF0546734B1B6813F0D2
:10140000020F72D100F01EFF401B0228F5D9032005
:10141000ADE16D4A136843F48033136063682BB306
:1014200000F010FF0546684B1B6813F4003FC9D15C
:1014300000F008FF401B6428F5D9032097E1B3F5BD
:10144000A02F09D0604B1A6822F480321A601A6803
:1014500022F480221A60E1E75B4B1A6842F4802292
:101460001A601A6842F480321A60D7E700F0EAFE88
:101470000546554B1B6813F4003FA3D000F0E2FE75
:10148000401B6428F5D9032071E14F4B5B6813F4CE
:10149000800FA6D14C4B1B6813F0020F03D0E368FA
:1014A000012B40F06181484A136823F0F803216959
:1014B00043EAC1031360236813F0080F46D0636941
:1014C00083B3414A536F43F00103536700F0BAFE00
:1014D00005463D4B5B6F13F0020F37D100F0B2FEB3
:1014E000401B0228F5D9032041E1374A136823F055
:1014F000F803216943EAC1031360DCE7324A136849
:1015000023F00103136000F09DFE05462E4B1B687F
:1015100013F0020FCFD000F095FE401B0228F5D942
:10152000032024E1284A536F23F00103536700F09E
:1015300089FE0546244B5B6F13F0020F06D000F0C6
:1015400081FE401B0228F5D9032010E1236813F027
:10155000040F7DD01C4B1B6C13F0805F1ED11A4B07
:101560001A6C42F080521A641B6C03F08053019392
:10157000019B0125154B1B6813F4807F10D0A368D5
:10158000012B25D0002B3BD10F4B1A6F22F001020B
:101590001A671A6F22F004021A671EE00025E9E7B5
:1015A0000A4A136843F48073136000F04BFE06464A
:1015B000064B1B6813F4807FE1D100F043FE801BD3
:1015C0006428F5D90320D2E00038024000700040C2
:1015D0006E4A136F43F001031367A36833B300F03F
:1015E00031FE0646694B1B6F13F0020F2FD100F03E
:1015F00029FE801B41F288339842F3D90320B6E0DC
:10160000052B09D0614B1A6F22F001021A671A6F7D
:1016100022F004021A67E0E75C4B1A6F42F0040202
:101620001A671A6F42F001021A67D6E700F00AFE45
:101630000646564B1B6F13F0020F08D000F002FE57
:10164000801B41F288339842F3D903208FE0FDB923
:10165000A369002B00F08A804C4A926802F00C02C9
:10166000082A58D0022B19D0484A136823F08073F7
:10167000136000F0E7FD0446444B1B6813F0007F45
:1016800047D000F0DFFD001B0228F5D903206EE0F3
:101690003E4A136C23F080531364D9E73B4A136826
:1016A00023F08073136000F0CDFD0546374B1B68B7
:1016B00013F0007F06D000F0C5FD401B0228F5D9CD
:1016C000032054E0E369226A1343626A43EA821307
:1016D000A26A5208013A43EA0243E26A43EA026319
:1016E00043F00053294A5360136843F0807313603A
:1016F00000F0A8FD0446254B1B6813F0007F06D1BF
:1017000000F0A0FD001B0228F5D903202FE00020E7
:101710002DE000202BE01D4A5268012B29D002F455
:101720008003E1698B4226D102F03F03216A8B429C
:1017300023D1616A47F6C0731340B3EB811F1ED1FA
:1017400002F44031A36A5B08013BB1EB034F18D1AF
:1017500002F07062E36AB2EB036F14D1002006E07E
:1017600001207047012002E0012000E0002002B0CB
:1017700070BD0120FBE70120F9E70120F7E7012018
:10178000F5E70120F3E70120F1E700BF0038024050
:1017900008B5314B9B6803F00C03042B57D0082B82
:1017A00057D12D4B5A6802F03F025B6813F4800F4B
:1017B0002AD0294B5968C1F3881C4FEA4C11B1EB70
:1017C0000C006EEB0E0E4FEA8E1343EA906381011C
:1017D000091A63EB0E03DB0043EA5173C90011EBF6
:1017E0000C0C43F10003590200234FEA4C2041EA5C
:1017F000DC51FEF719FF184B5B68C3F3014301335B
:101800005B00B0FBF3F025E0134B5968C1F3881C73
:101810004FEA4C11B1EB0C006EEB0E0E4FEA8E133B
:1018200043EA90638101091A63EB0E03DB0043EA8C
:101830005173C90011EB0C0C43F100039902002312
:101840004FEA8C2041EA9C51FEF7EEFED3E70348B5
:1018500000E0034808BD00BF0038024000127A00D3
:101860000024F400002800F0A08070B50D46044666
:10187000524B1B6803F00F038B420BD24F4A136885
:1018800023F00F030B431360136803F00F038B4225
:1018900040F08D80236813F0020F17D013F0040F6F
:1018A00004D0474A936843F4E0539360236813F0ED
:1018B000080F04D0424A936843F460439360404A5F
:1018C000936823F0F003A1680B439360236813F03F
:1018D000010F31D06368012B20D0022B25D0384A6C
:1018E000126812F0020F64D035498A6822F00302B0
:1018F00013438B6000F0A6FC0646314B9B6803F057
:101900000C036268B3EB820F16D000F09BFC801BC7
:1019100041F288339842F0D9032045E0284A126802
:1019200012F4003FE0D101203EE0254A126812F097
:10193000007FD9D1012037E0204B1B6803F00F0353
:10194000AB420AD91D4A136823F00F032B431360DF
:10195000136803F00F03AB422DD1236813F0040F7B
:1019600006D0174A936823F4E053E1680B43936071
:10197000236813F0080F07D0114A936823F46043DB
:10198000216943EAC1039360FFF702FF0C4B9B6898
:10199000C3F303130B4AD35CD8400B4B18600B4BBB
:1019A0001868FFF74BFB002070BD01207047012035
:1019B000FAE70120F8E70120F6E700BF003C02400B
:1019C00000380240386100080800002004000020B0
:1019D000014B1868704700BF0800002008B5FFF7EA
:1019E000F7FF044B9B68C3F38223034AD35CD840C0
:1019F00008BD00BF003802404861000808B5FFF785
:101A0000E7FF044B9B68C3F34233034AD35CD840DF
:101A100008BD00BF00380240486100080F23036082
:101A20000B4B9A6802F0030242609A6802F0F002DF
:101A300082609A6802F4E052C2609B68DB0803F49B
:101A4000E0530361034B1B6803F00F030B60704707
:101A500000380240003C0240F0B583B004460668FE
:101A600016F001060DD0A74B9A6822F400029A6086
:101A70009A68416B0A439A60436B002B00F03981EE
:101A80000026256815F4002511D09E4AD2F88C3026
:101A900023F44013E16B0B43C2F88C30E36BB3F5D6
:101AA000801F00F02881002B00F02781002523688B
:101AB00013F4801F0FD0934AD2F88C3023F44003E4
:101AC000216C0B43C2F88C30236CB3F5800F00F00F
:101AD000168103B90125236813F0807F00D0012609
:101AE00013F0200F40F01081236813F0100F0CD07A
:101AF000844BD3F88C2022F08072C3F88C20D3F86A
:101B00008C20A16B0A43C3F88C20236813F4804F08
:101B100008D07C4AD2F8903023F44033616E0B43F6
:101B2000C2F89030236813F4004F08D0754AD2F8F9
:101B3000903023F44023A16E0B43C2F89030236809
:101B400013F4803F08D06F4AD2F8903023F440134A
:101B5000E16E0B43C2F89030236813F4003F08D0C5
:101B6000684AD2F8903023F44003216F0B43C2F847
:101B70009030236813F0400F08D0624AD2F89030BA
:101B800023F00303616C0B43C2F89030236813F019
:101B9000800F08D05B4AD2F8903023F00C03A16C80
:101BA0000B43C2F89030236813F4807F08D0554A65
:101BB000D2F8903023F03003E16C0B43C2F8903040
:101BC000236813F4007F08D04E4AD2F8903023F0F7
:101BD000C003216D0B43C2F89030236813F4806F6B
:101BE00008D0484AD2F8903023F44073616D0B431B
:101BF000C2F89030236813F4006F08D0414AD2F83D
:101C0000903023F44063A16D0B43C2F890302368F9
:101C100013F4805F08D03B4AD2F8903023F440534D
:101C2000E16D0B43C2F89030236813F4005F08D0D5
:101C3000344AD2F8903023F44043216E0B43C2F86B
:101C40009030236813F4800F08D02E4AD2F89030D9
:101C500023F08063A16F0B43C2F89030236813F424
:101C6000001F0DD0274AD2F8903023F00063E16FB7
:101C70000B43C2F89030E36FB3F1006F00F0AA801D
:101C8000236813F0080F00D0012513F4802F08D02B
:101C90001C4AD2F8903023F04073616F0B43C2F8B6
:101CA0009030236813F4000F09D0164AD2F8903010
:101CB00023F08053D4F880100B43C2F8903026B93B
:101CC000236813F0007F00F005810E4A136823F0AB
:101CD0008063136000F0B6FA06460A4B1B6813F0E7
:101CE000006F79D000F0AEFA801B6428F5D903208C
:101CF000F3E00126C5E60126D5E60125D7E6012653
:101D0000E7E600BF003802407F4B1A6C42F0805279
:101D10001A641B6C03F080530193019B7B4A136888
:101D200043F48073136000F08DFA0746774B1B680D
:101D300013F4807F06D100F085FAC01B6428F5D922
:101D40000320CAE0704B1B6F13F4407315D0226B55
:101D500002F440729A4210D06B4B1A6F22F4407218
:101D6000196F41F480311967196F21F480311967B7
:101D70001A671B6F13F0010F12D1236B03F440722B
:101D8000B2F5407F1DD0604A936823F4F813936046
:101D90005D490B6F226BC2F30B0213430B67A3E683
:101DA00000F050FA0746584B1B6F13F0020FE4D1B6
:101DB00000F048FAC01B41F288339842F3D903205F
:101DC0008BE05148826822F4F812514919400A43C5
:101DD0008260DDE7012553E7236813F0010F13D07C
:101DE000636B8BB9484AD2F88430D2F884106068AB
:101DF00003F4403343EA801301F070610B43A168A0
:101E000043EA0173C2F88430236813F4002F03D02F
:101E1000E26BB2F5801F06D013F4801F1ED0236C36
:101E2000B3F5800F1AD1384AD2F88430D2F8841032
:101E3000606803F4403343EA8013E06843EA0063D8
:101E400001F0E0410B43C2F88430D2F88C3023F02B
:101E50001F03616A01390B43C2F88C30236813F009
:101E6000807F11D0284AD2F88400D2F884106668A6
:101E700023691B0443EA861300F07060034301F0FA
:101E8000E0410B43C2F88430236813F0007F0DD08B
:101E9000626823691B0443EA8213E26843EA02632F
:101EA000A26843EA0273184AC2F88430164A1368DB
:101EB00043F08063136000F0C5F90646124B1B68BF
:101EC00013F0006F06D100F0BDF9801B6428F5D92E
:101ED000032002E0012D02D0002003B0F0BD0A4A29
:101EE000136823F08053136000F0ACF90546064BED
:101EF0001B6813F0005F0DD000F0A4F9401B6428AC
:101F0000F5D90320E9E700BF003802400070004027
:101F1000FFFCFF0F236813F4002F01D0E26B22B106
:101F200013F4801F1DD0236CDBB9354AD2F88830FA
:101F3000D2F88810606903F4403343EA8013A06943
:101F400043EA006301F0E0410B43C2F88830D2F865
:101F50008C3023F4F853A16A013943EA0123C2F813
:101F60008C30236813F4001F03D0E36FB3F1006FCC
:101F700031D0236813F0080F19D0214AD2F8881005
:101F8000D2F88830606903F4403343EA801301F0EB
:101F900070610B43E16943EA0173C2F88830D2F8FB
:101FA0008C3023F44033E16A0B43C2F88C30144A7E
:101FB000136843F08053136000F044F90446104B5B
:101FC0001B6813F0005F19D100F03CF9001B642876
:101FD000F5D9032081E70A4AD2F88800D2F88810A0
:101FE0006569236A1B0443EA851300F070600343AC
:101FF00001F0E0410B43C2F88830BAE700206CE7FB
:102000000038024000230F2B00F2E480F0B583B0CB
:102010003AE0092200E00022AA40324302346E4D29
:1020200045F824206D4A14686FEA0C0224EA0C0576
:102030004E6816F4803F01D04CEA0405674C2560D9
:10204000646802EA04054E6816F4003F01D04CEAC9
:102050000405624C6560A46802EA04054E6816F443
:10206000801F01D04CEA04055C4CA560E468224066
:102070004D6815F4001F01D04CEA0402574CE26091
:1020800001330F2B00F2A48001229A400C6804EA6D
:10209000020C32EA0404F3D14C68651E112C18BFFF
:1020A000012D01D9122C12D185685E000324B440A1
:1020B00025EA0405CC68B4402C438460456825EAD1
:1020C00002054C68C4F300129A402A434260C56876
:1020D0004FEA430E032404FA0EF4E24325EA040512
:1020E0008C6804FA0EF42C43C4604C68122C18BFA0
:1020F000022C0FD1DD08083550F8257003F00704D5
:10210000A6000F24B44027EA04070C69B4403C43FE
:1021100040F82540046814404A6802F0030202FABD
:102120000EF2224302604A6812F0805FA8D02C4A67
:10213000546C44F480445464526C02F48042019222
:10214000019A9C08A51C244A52F8256003F003025A
:1021500095000F22AA4026EA0206224A90423FF446
:102160005AAF02F58062904222D002F5806290421E
:1021700020D002F5806290421ED002F5806290422B
:102180001CD002F5806290421AD002F58062904223
:1021900018D002F58062904216D002F5806290421B
:1021A00014D002F5806290423FF433AF0A2233E745
:1021B000012231E702222FE703222DE704222BE739
:1021C000052229E7062227E7072225E7082223E739
:1021D00003B0F0BD704700BF00380140003C014033
:1021E00000380240000002400369194201D001207A
:1021F0007047002070470AB181617047090481610E
:1022000070470000024A136843F4807313607047FC
:102210000070004008B50320FFF74AF80020FEF7E1
:102220000DFFFEF7D9FD002008BD0000034A11682C
:10223000034B1B780B441360704700BF300600202F
:1022400000000020014B1868704700BF30060020D6
:1022500038B50446FFF7F6FF0546B4F1FF3F02D05C
:10226000044B1B781C44FFF7EDFF401BA042FAD340
:1022700038BD00BF00000020002857D010B504462C
:1022800090F84130002B41D0242384F8413022685B
:10229000136823F0010313606368226823F07063FE
:1022A00013612268936823F400439360E368012B71
:1022B00031D0A368226843F404439360E368022B9F
:1022C0002FD0226851681A4B0B4353602268D368A1
:1022D00023F40043D360236962691343A169226830
:1022E00043EA0123D360E369216A22680B43136048
:1022F0002268136843F00103136000206064202308
:1023000084F84130206384F8420010BD80F84030EA
:10231000FEF782FDB8E7A368226843F400439360A8
:10232000CCE723684FF400625A60CAE70120704787
:102330000080000290F84130DBB2202B24D190F8CD
:102340004030012B22D0012380F84030242380F834
:1023500041300268136823F00103136002681368B8
:1023600023F48053136002681368194311600268F4
:10237000136843F001031360202380F841300023E9
:1023800080F840301846704702207047022070479E
:1023900090F84130DBB2202B22D190F84030012B55
:1023A00020D0012380F84030242380F84130026897
:1023B000136823F0010313600268136823F4706349
:1023C00043EA012111600268136843F001031360BE
:1023D000202380F84130002380F8403018467047B1
:1023E000022070470220704700286FD010B50446C5
:1023F000436A33B94368B3F5827F05D00023C361D4
:1024000002E00023036143610023A36294F85D307E
:10241000002B52D0022384F85D302268136823F029
:1024200040031360E368B3F5E06F4CD90022B3F5C5
:10243000706F18BFB3F5E06F01D00023A36263682B
:1024400003F48273A16801F404410B43216901F094
:1024500002010B43616901F001010B43A16901F421
:1024600000710B43E16901F038010B43216A01F06F
:1024700080010B43A16A01F4005120680B43036003
:10248000638B03F00403616A01F010010B43616B7D
:1024900001F008010B43E16801F470610B4321680E
:1024A00013434B602268D36923F40063D361002097
:1024B0002066012384F85D3010BD84F85C3020462E
:1024C000FEF7E0FCA6E74FF48052B0E7012070472A
:1024D0007047000090F83D30DBB2012B3AD1022367
:1024E00080F83D300268D36843F00103D36003688D
:1024F0001A4AB3F1804F18BF93421DD0A2F57C4217
:10250000934219D002F58062934215D002F58062A1
:10251000934211D002F5784293420DD002F57052E9
:10252000934209D0A2F59432934205D01A6842F042
:1025300001021A60002070479968094A0A40062A79
:1025400018BFB2F5803F07D01A6842F001021A6046
:1025500000207047012070470020704700000140B4
:1025600007000100704770477047704710B5044678
:1025700003681A6912F0020F11D0DA6812F0020F24
:102580000DD06FF002021A610123037703689B6983
:1025900013F0030F79D0FFF7E6FF002323772368BA
:1025A0001A6912F0040F12D0DA6812F0040F0ED07C
:1025B0006FF004021A610223237723689B6913F4E6
:1025C000407F68D02046FFF7CEFF002323772368A3
:1025D0001A6912F0080F12D0DA6812F0080F0ED044
:1025E0006FF008021A61042323772368DB6913F074
:1025F000030F57D02046FFF7B6FF00232377236849
:102600001A6912F0100F12D0DA6812F0100F0ED003
:102610006FF010021A61082323772368DB6913F433
:10262000407F46D02046FFF79EFF00232377236894
:102630001A6912F0010F03D0DA6812F0010F3FD1CE
:1026400023681A6912F0800F03D0DA6812F0800F45
:102650003DD123681A6912F4807F03D0DA6812F042
:10266000800F3BD123681A6912F0400F03D0DA685B
:1026700012F0400F39D123681A6912F0200F03D0ED
:10268000DA6812F0200F37D110BDFFF76BFF20463C
:10269000FFF76AFF81E72046FFF764FF2046FFF758
:1026A00063FF92E72046FFF75DFF2046FFF75CFFE0
:1026B000A3E72046FFF756FF2046FFF755FFB4E794
:1026C0006FF001021A612046FEF738FAB8E76FF0A2
:1026D00080021A61204600F0D0F8BAE76FF48072E9
:1026E0001A61204600F0CAF8BCE76FF040021A6198
:1026F0002046FFF73AFFBEE76FF020021A6120463E
:1027000000F0BAF8C0E7000030B503683B4A9042D9
:1027100014BF4FF0000E4FF0010EB0F1804F14BF08
:1027200072464EF00102AAB9354CA04214BF0024F3
:102730000124344DA8420DD064B904F1804404F55D
:102740008234A04214BF0024012405F50065A8428C
:1027500000D01CB123F070034C682343002A33D10E
:10276000274A904214BF00220122264CA0422BD0BF
:1027700052BB02F1804202F58232904214BF002225
:10278000012204F50064A0421ED0EAB91E4A90421C
:1027900014BF0022012204F59A34A04214D09AB941
:1027A0001A4A904214BF0022012204F50064A0429C
:1027B0000AD04AB9164A904214BF00220122A4F559
:1027C0009634A04200D022B123F4407CCB6843EA87
:1027D0000C0323F080034A69134303608A68C262D2
:1027E0000A6882620B4A904214BF73464EF001039E
:1027F0000BB10B6903630123436130BD000001404D
:10280000000800400004004000440140001800405F
:10281000002000400004014060B310B5044690F869
:102820003D3013B3022384F83D30214651F8040BA8
:10283000FFF76AFF012384F8483084F83E3084F8BB
:102840003F3084F8403084F8413084F8423084F8D6
:10285000433084F8443084F8453084F8463084F8B6
:10286000473084F83D30002010BD80F83C30FFF741
:102870002FFED7E701207047704770477047000070
:1028800010B5044683680269134342691343C26961
:10289000134301680868934A024013430B6022689F
:1028A000536823F44053E1680B435360A269236AE1
:1028B0001A4321688B6823F4306313438B602368C9
:1028C000894A934219D0894A934229D0884A93422F
:1028D0003ED0884A934262D0874A934271D0874A59
:1028E000934200F08380864A934200F09480854AA8
:1028F000934200F0A58010233AE0834BD3F8903048
:1029000003F00303032B09D8DFE803F00204AE064B
:1029100001232DE004232BE0082329E0102327E0E6
:10292000794BD3F8903003F00C030C2B0ED8DFE872
:1029300003F0070D0D0D090D0D0D9D0D0D0D0B0077
:10294000002315E0042313E0082311E010230FE017
:102950006D4BD3F8903003F03003202B00F08880CB
:1029600019D8002B00F08680102B40F085800423BE
:10297000E069B0F5004F00F0AB80082B00F20C814D
:10298000DFE813F0E800FB00E6000A01FE000A01A0
:102990000A010A010101302B70D10823E8E75A4BE4
:1029A000D3F8903003F0C003802B69D005D8002BFA
:1029B00068D0402B68D10423DAE7C02B66D1082306
:1029C000D6E7514BD3F8903003F44073B3F5007F52
:1029D0005ED006D8002B5DD0B3F5807F5CD1042398
:1029E000C6E7B3F5407F59D10823C1E7464BD3F87A
:1029F000903003F44063B3F5006F51D006D8002B3C
:102A000050D0B3F5806F4FD10423B1E7B3F5406FD9
:102A10004CD10823ACE73C4BD3F8903003F440533F
:102A2000B3F5005F44D006D8002B43D0B3F5805FE8
:102A300042D104239CE7B3F5405F3FD1082397E7D9
:102A4000314BD3F8903003F44043B3F5004F37D007
:102A500005D8BBB3B3F5804F36D1042388E7B3F56F
:102A6000404F33D1082383E7022381E702237FE726
:102A700002237DE700237BE7102379E7102377E724
:102A8000022375E7002373E7102371E710236FE734
:102A900002236DE700236BE7102369E7102367E744
:102AA000022365E7012363E7102361E710235FE753
:102AB00002235DE700235BE7102359E7102357E764
:102AC000022355E7002353E7102351E710234FE774
:102AD000082B5BD8DFE803F01A343A5A375A5A5AAF
:102AE0001E0000BFF369FFEF0010014000440040EA
:102AF00000480040004C00400050004000140140DD
:102B000000780040007C004000380240FEF766FF7D
:102B100000283DD06268530803EB4000B0FBF2F0A0
:102B200080B2A0F110024FF6EF739A4232D820F033
:102B30000F03C0F3420018432368D860002030E040
:102B4000FEF75CFFE4E7FEF723FEE1E71748E1E765
:102B5000164802E0FEF742FF00B3636800EB530043
:102B6000B0FBF3F080B2A0F110024FF6EF739A427F
:102B700016D82368D860002013E0FEF73FFFEBE78C
:102B8000FEF706FEE8E74FF40040E6E7012008E024
:102B9000002006E0012004E0012002E0002000E027
:102BA000012000236366A36610BD00BF0024F4006B
:102BB000436A13F0010F06D00268536823F4003310
:102BC000816A0B435360436A13F0020F06D0026818
:102BD000536823F48033C16A0B435360436A13F094
:102BE000040F06D00268536823F48023016B0B4363
:102BF0005360436A13F0080F06D00268536823F449
:102C00000043416B0B435360436A13F0100F06D02F
:102C10000268936823F48053816B0B439360436A8B
:102C200013F0200F06D00268936823F40053C16BA1
:102C30000B439360436A13F0400F0AD00268536855
:102C400023F48013016C0B435360036CB3F5801FB6
:102C50000BD0436A13F0800F06D00268536823F448
:102C60000023816C0B43536070470268536823F460
:102C7000C003416C0B435360EBE72DE9F843054675
:102C80000F4616469946DDF820802C68E46937EA3D
:102C900004030CBF4FF0010C4FF0000CB4453DD1C4
:102CA000B8F1FF3FF1D0FFF7CDFAA0EB09004045A6
:102CB00022D8B8F1000F1FD02B681A6812F0040F49
:102CC000E3D0DA6912F4006FDFD04FF400621A62C9
:102CD0002A68136823F4D07313602A68936823F07A
:102CE000010393602023AB67EB67C5F880300023B6
:102CF00085F87430032012E02A68136823F4D07337
:102D000013602A68936823F0010393602023AB6764
:102D1000EB67002385F87430032000E00020BDE855
:102D2000F88310B582B004460023C0F88030FFF766
:102D300089FA23681B6813F0080F08D12023A367C2
:102D4000E3670020206684F8740002B010BD6FF0C5
:102D50007E430093034600224FF400112046FFF704
:102D60008CFF0028EAD00320EFE768B310B50446D3
:102D7000836F03B32423A3672268136823F001033E
:102D800013602046FFF77CFD012813D0636ABBB9AE
:102D90002268536823F4904353602268936823F0B9
:102DA0002A0393602268136843F0010313602046EE
:102DB000FFF7B7FF10BD80F87430FEF7ADF8D9E724
:102DC0002046FFF7F5FEE3E70120704770B58AB0B3
:102DD000002800F097800546046890F8BD333BB3A7
:102DE000032385F8BD33E36B13F4807F01D1002307
:102DF0002B61286800F0F8F82C4654F8106BEC466C
:102E00000FCCACE80F000FCCACE80F0094E8030047
:102E10008CE803002B1D0ECB304600F0A7F80446CB
:102E200058B1022385F8BD33012420460AB070BD95
:102E300080F8BC33FEF7BAF8D2E70021286800F02A
:102E4000D9F8234616E0C3EBC30205EB8202012149
:102E500082F83D1082F83C30A2F84230002182F81E
:102E60003F1051649164C3EBC30205EB820211650C
:102E70000133DBB269688B42E5D316E0C4EBC403CF
:102E800005EB8303002283F8FD2183F8FC4183F8DE
:102E9000FF21C3F80422C3F80822C4EBC40305EBE6
:102EA0008303C3F810220134E4B2A142E6D82C46D1
:102EB00054F8106BEC460FCCACE80F000FCCACE82C
:102EC0000F0094E803008CE803002B1D0ECB304666
:102ED00000F0D6F8044660B9002385F838300123A5
:102EE00085F8BD336B6A012B08D0286800F09AF989
:102EF0009BE7022385F8BD33012496E7284600F0BE
:102F000003F8F2E7012490E7034602680121C0F8C4
:102F1000FC13002083F8F403936943F0006393618A
:102F2000516D024B0B435365704700BF0300001007
:102F3000002301330C4A934211D80269002AF8DABF
:102F4000036943F00103036100230133064A9342FE
:102F500007D8026912F0010FF7D100207047032053
:102F600070470320704700BF400D030084B010B5C8
:102F7000044603A880E80E00089B012B1DD1A36B1B
:102F800023F48033A363E268164B1340E360E368E5
:102F900023F44013E3600F9B012B09D02046FFF779
:102FA000C7FF069B012B14D0BDE8104004B070474A
:102FB000E36843F48013E360F0E7E36843F0400321
:102FC000E3602046FFF7B4FFA36B43F48033A363B1
:102FD000E7E7A36843F00603A360A36843F0200378
:102FE000A360E1E7BFFFBDFF836823F001038360B7
:102FF0000020704708B5C36823F0C043C3600129AF
:1030000009D069B9C36843F08043C3603220FFF739
:103010001FF9002008BDC36843F00053C360F5E703
:103020000120F7E7890141F020010161002301330C
:10303000054A934205D8026912F0200FF7D100200B
:1030400070470320704700BF400D03001023036149
:1030500000230133054A934205D8026912F0100F8C
:10306000F7D1002070470320704700BF400D0300D8
:10307000D0F800381943C0F800180020704700004D
:1030800084B02DE9F041044607A880E80E00002333
:1030900006E003F1400204EB82020021516001339B
:1030A0000E2BF6D9119F37BBD4F8043843F0020336
:1030B000C4F80438A36B23F40013A363236843F01C
:1030C00040032360236843F0800323600023C4F897
:1030D000003E04F50065D4F80038C4F800380C9BB5
:1030E000012B0DD0032B1CD1099BABB9002120462D
:1030F000FFF7BEFF19E0A36B43F40013A363E5E7FA
:10310000099B23B900212046FFF7B2FF0DE0012102
:103110002046FFF7ADFF08E001212046FFF7A8FF9A
:1031200003E003212046FFF7A3FF10212046FFF70D
:1031300079FF804608B14FF001082046FFF786FF6F
:1031400008B14FF0010800232B616B61EB610AE0CD
:10315000C3B94FF00060C2F8000900220A614FF6BF
:103160007F328A6001330799994210D904EB4312E8
:1031700002F51061D2F800090028E9DB0020C2F84E
:103180000009EAE74FF09040C2F80009E5E70023A4
:103190000AE0C3B14FF0904CC2F800CB00220261AC
:1031A0004FF67F3282600133994211D904EB43120A
:1031B00002F53060D2F8006B002EEADB4FF0000C15
:1031C000C2F800CBEAE74FF0006CC2F800CBE5E7AD
:1031D0002B6923F480732B610023A3616FF080437C
:1031E00063610A9B1BB9A36943F01003A361A26941
:1031F0000A4B1343A3610D9B1BB1A36943F0080362
:10320000A361012F04D04046BDE8F04104B07047EF
:10321000A269034B1343A361F5E700BF00383C806C
:1032200004000040D0F8003E23F00303C0F8003E45
:10323000D0F8043843F00203C0F804380020704787
:10324000074B5A68074B1B680749A1FB03139B0CEC
:1032500003FB00F0024B5B689B1A8342FAD3704772
:10326000001000E00800002083DE1B43034AD2F870
:10327000883043F47003C2F88830704700ED00E0F6
:1032800000F1080343604FF0FF328260C3600361C6
:1032900000230360704700230361704743684B605D
:1032A0009A688A605160996008610368013303601D
:1032B000704730B40D68B5F1FF3F11D000F108033D
:1032C0001C465B681A68AA42FAD963684B60996029
:1032D0008C606160086103680133036030BC704733
:1032E0000469F2E70369416882688A604168516055
:1032F0005A68824206D0002202611A68013A1A60B6
:103300001868704782685A60F5E710B5044601F006
:1033100039FDA26BE36B9A4204D0002401F058FD02
:10332000204610BD0124F9E710B5044601F02AFD3E
:10333000A36B23B9012401F04BFD204610BD0024EE
:10334000F9E770B504461546866B026C5AB90368F6
:103350001BB100200136A66370BD806801F020F823
:103360000023A360F6E76DB9406801F091FE226C7E
:10337000636813446360A268934219D3236863604F
:103380002846E7E7C06801F083FE226C5142E368FB
:103390009B1AE3602268934202D2A3680B44E36065
:1033A000022D01D00020D5E726B1013E0020D1E753
:1033B0002846CFE70020CDE70346026C6AB110B57E
:1033C0000846D9681144D9609C68A14201D31968A4
:1033D000D960D96801F05CFE10BD704738B505466C
:1033E00001F0D0FC95F8454064B201E0013C64B2C4
:1033F000002C0ADD6B6A43B105F1240000F020FFC8
:103400000028F3D000F0B6FFF0E7FF2385F8453041
:1034100001F0DEFC01F0B6FC95F8444064B201E036
:10342000013C64B2002C0ADD2B6943B105F11000A8
:1034300000F006FF0028F3D000F09CFFF0E7FF2328
:1034400085F8443001F0C4FC38BD38B5E0B10D4614
:10345000044601F097FC2368E26B216C01FB02300B
:10346000A0600020A0636360013A02FB0133E360C7
:10347000FF2384F8443084F845300DBB236973B9C9
:1034800001F0A6FC012038BD4FF0500372B683F363
:103490001188BFF36F8FBFF34F8F62B6FEE704F161
:1034A000100000F0CDFE0028EAD04FF0E0234FF0EE
:1034B0008052C3F8042DBFF34F8FBFF36F8FDFE748
:1034C00004F11000FFF7DCFE04F12400FFF7D8FE42
:1034D000D6E738B51D46049C0B4649B92460E06325
:1034E000236401212046FFF7B0FF84F84C5038BD1B
:1034F0002260F4E750B94FF0500372B683F311889D
:10350000BFF36F8FBFF34F8F62B6FEE710B584B085
:103510001C4693B10B1E18BF0123002A08BF43F0BD
:103520000103ABB94FF0500372B683F31188BFF3B8
:103530006F8FBFF34F8F62B6FEE74FF0500372B646
:1035400083F31188BFF36F8FBFF34F8F62B6FEE72F
:10355000B1FA81F35B09002A18BF43F0010353B9A4
:103560004FF0500372B683F31188BFF36F8FBFF330
:103570004F8F62B6FEE750230393039B502B0AD074
:103580004FF0500372B683F31188BFF36F8FBFF310
:103590004F8F62B6FEE7039B012384F84630009408
:1035A0009DF81830FFF795FF204604B010BDF0B528
:1035B00085B0019298B10F461D460446D1B1022D47
:1035C00026D1E36B012B23D04FF0500372B683F367
:1035D0001188BFF36F8FBFF34F8F62B6FEE74FF0D6
:1035E000500372B683F31188BFF36F8FBFF34F8F11
:1035F00062B6FEE7036C002BE1D04FF0500372B6C9
:1036000083F31188BFF36F8FBFF34F8F62B6FEE76E
:1036100000F0B6FE064668B9019B002B4AD04FF079
:10362000500372B683F31188BFF36F8FBFF34F8FD0
:1036300062B6FEE700263DE02A4639462046FFF7FF
:1036400080FE636A7BB948B14FF0E0234FF08052AF
:10365000C3F8042DBFF34F8FBFF36F8F01F0B8FB9A
:10366000012005B0F0BD04F1240000F0E9FD0028C0
:10367000F4D04FF0E0234FF08052C3F8042DBFF395
:103680004F8FBFF36F8FE9E701F0A2FB0020E8E75F
:1036900002A800F01DFE012619E0002384F8443042
:1036A00021E0002384F8453023E02046FFF796FE12
:1036B00000F09CFC01F066FBA26BE36B9A42BBD36B
:1036C000022DB9D0019B002BDED0002EE0D001F0FE
:1036D0007FFB00F0EFFB01F055FB94F8442052B261
:1036E000B2F1FF3FD9D094F8452052B2B2F1FF3F7A
:1036F000D7D001F06DFB01A902A800F0F5FDD8B903
:103700002046FFF702FE0028CFD0019904F11000F7
:1037100000F05EFD2046FFF761FE00F067FC002828
:10372000C8D14FF0E0234FF08052C3F8042DBFF30F
:103730004F8FBFF36F8FBDE72046FFF74FFE00F0BE
:1037400055FC00208DE72DE9F843A0B10F46164641
:103750001C460546D1B1022C26D1EB6B012B23D0A0
:103760004FF0500372B683F31188BFF36F8FBFF32E
:103770004F8F62B6FEE74FF0500372B683F31188A5
:10378000BFF36F8FBFF34F8F62B6FEE7036C002B62
:10379000E1D04FF0500372B683F31188BFF36F8FFF
:1037A000BFF34F8F62B6FEE701F0F2FBEFF3118932
:1037B0004FF0500372B683F31188BFF36F8FBFF3DE
:1037C0004F8F62B6AA6BEB6B9A4206D3022C04D0E1
:1037D000002089F31188BDE8F88395F845804FFAF9
:1037E00088F8224639462846FFF7ABFDB8F1FF3F7F
:1037F00006D008F101035BB285F845300120E8E707
:103800006B6A0BB90120E4E705F1240000F018FD14
:1038100018B126B101203060DBE70120D9E7012093
:10382000D7E7F0B585B00192A0B10F460446E1B1EB
:1038300000F0A6FD064630BB019B002B64D04FF084
:10384000500372B683F31188BFF36F8FBFF34F8FAE
:1038500062B6FEE74FF0500372B683F31188BFF3F0
:103860006F8FBFF34F8F62B6FEE7036C002BDFD084
:103870004FF0500372B683F31188BFF36F8FBFF31D
:103880004F8F62B6FEE700263EE039462046FFF73E
:1038900093FD013DA563236923B901F099FA012045
:1038A00005B0F0BD04F1100000F0CAFC0028F4D00F
:1038B0004FF0E0234FF08052C3F8042DBFF34F8F39
:1038C000BFF36F8FE9E701F083FA0020E8E702A871
:1038D00000F0FEFC012621E0002384F8443029E0BA
:1038E000002384F845302BE02046FFF777FD00F0F9
:1038F0007DFB09E02046FFF771FD00F077FB2046D5
:10390000FFF712FD00283FD101F03CFAA56B002D16
:10391000BBD1019B002BD6D0002ED8D001F058FA95
:1039200000F0C8FA01F02EFA94F844305BB2B3F11B
:10393000FF3FD1D094F845305BB2B3F1FF3FCFD019
:1039400001F046FA01A902A800F0CEFC0028D1D16E
:103950002046FFF7E9FC0028C6D0019904F12400B5
:1039600000F036FC2046FFF739FD00F03FFB002851
:10397000CAD14FF0E0234FF08052C3F8042DBFF3BB
:103980004F8FBFF36F8FBFE7002089E70023072B1E
:103990000CD8074A52F833200AB10133F7E7044A3A
:1039A00042F8331002EBC30358607047704700BF02
:1039B0003406002070B504460D46164601F0E2F9C3
:1039C00094F844305BB2B3F1FF3F0DD094F845302A
:1039D0005BB2B3F1FF3F0BD001F0FAF9A36B5BB11F
:1039E0002046FFF7FBFC70BD002384F84430EDE770
:1039F000002384F84530EFE73246294604F12400DD
:103A000000F000FCECE70000084B1B681B6823B9C2
:103A1000074B4FF0FF321A607047044B1B68DB689E
:103A2000DB685A68024B1A60704700BF78060020B6
:103A3000240B00202DE9F04780460D461746994695
:103A4000089EDDF824A00A9C9200A521206B01F0BD
:103A50002DFB236B6FF040423A4403EB820727F0C3
:103A60000707B5B34FF0000CBCF10F0F0BD815F8DA
:103A70000C2004EB0C0383F8342015F80C3013B140
:103A80000CF1010CF0E7002384F84330372E00D905
:103A90003726E662E66400252565201DFFF7FBFB5F
:103AA00004F11800FFF7F7FB2461C6F13806A661A0
:103AB0006462656584F858504A464146384601F0CC
:103AC00039F92060BAF1000F01D0CAF80040BDE812
:103AD000F087002384F83430D8E7000038B500249C
:103AE00007E004EB840293000E481844FFF7C8FB7C
:103AF0000134372CF5D90C4D2846FFF7C1FB0B4C90
:103B00002046FFF7BDFB0A48FFF7BAFB0948FFF75D
:103B1000B7FB0948FFF7B4FB084B1D60084B1C605E
:103B200038BD00BF80060020F80A00200C0B0020E2
:103B30002C0B0020580B0020440B0020780600209E
:103B40007C06002010B5044601F01CF9224A1368D7
:103B500001331360214B1B685BB1214B1B686BB9B0
:103B60001E4B1B68DA6AE36A9A4207D81B4B1C603B
:103B700004E01A4B1C601368012B29D0194A136802
:103B8000013313606364E06A174B1B68984201D9E4
:103B9000154B186000EB8000211D144B03EB8000D7
:103BA000FFF77CFB01F014F90D4B1B687BB10B4B4D
:103BB0001B68DA6AE36A9A4209D24FF0E0234FF0B9
:103BC0008052C3F8042DBFF34F8FBFF36F8F10BD2A
:103BD000FFF784FFD2E700BFE00A00207406002050
:103BE000400B0020F00A0020F40A0020800600208C
:103BF00010B5044690F8593073B1012B13D0022B45
:103C000010D04FF0500372B683F31188BFF36F8F5B
:103C1000BFF34F8F62B6FEE7006B01F00DF8204650
:103C200001F00AF810BD01F007F8FBE70F4B1B6825
:103C3000D3B110B501F0A6F80D4BDB68DC68201D90
:103C4000FFF750FB0B4A1368013B1360074A1368E8
:103C5000013B136001F0BCF82046FFF7C9FF034B9E
:103C60001B68002BE6D110BD704700BFE40A00209E
:103C7000580B0020E00A002008B5FFF7D7FF074BDC
:103C80001B68012BF9D94FF0E0234FF08052C3F8A5
:103C9000042DBFF34F8FBFF36F8FEEE78006002038
:103CA00070B504460D46194B1E68194B1868043050
:103CB000FFF718FBB4F1FF3F14BF00230123002DD1
:103CC00008BF00236BB93444114B1B685C60A642EB
:103CD0000ED9104B18680E4B19680431FFF7E9FA3A
:103CE00070BD0B4B196804310B48FFF7D7FAF7E7A3
:103CF0000A4B1868064B19680431FFF7DAFA084BCB
:103D00001B68A342ECD9064B1C60E9E76C0B002052
:103D1000740600207C060020440B0020780600205A
:103D2000240B002030B587B00B9C8CB10C9DD5B115
:103D30005C250495049D5C2D20D04FF0500372B695
:103D400083F31188BFF36F8FBFF34F8F62B6FEE727
:103D50004FF0500372B683F31188BFF36F8FBFF338
:103D60004F8F62B6FEE74FF0500372B683F31188AF
:103D7000BFF36F8FBFF34F8F62B6FEE7049D0C9DBC
:103D80002C63022485F8594000240394029505AC65
:103D900001940A9C0094FFF74DFE0C98FFF7D2FEA9
:103DA000059807B030BD2DE9F04385B00746884639
:103DB00014461E46900000F0C3FE00B381465C200E
:103DC00000F0BEFE0546B0B1C0F83090E5B100236A
:103DD00085F85930039302950D9B01930C9B00933A
:103DE0003346224641463846FFF724FE2846FFF771
:103DF000A9FE012005E0484600F01EFFE6E74FF06F
:103E0000FF3005B0BDE8F0834FF0FF30F9E7000068
:103E100010B588B000240594069407AA06A905A841
:103E200000F012FE059B0293069B0193009423462B
:103E3000079A1A491A48FFF775FF1A4B186040B1E4
:103E400000F06AFB012806D0B0F1FF3F1AD008B09D
:103E500010BD0020F6E74FF0500372B683F31188CF
:103E6000BFF36F8FBFF34F8F62B60F4B4FF0FF3230
:103E70001A600E4B01221A600D4B00221A6001F0ED
:103E80001DF8E4E74FF0500372B683F31188BFF3D7
:103E90006F8FBFF34F8F62B6FEE700BF506100081F
:103EA000793C0008200B0020240B0020400B002050
:103EB0006C0B0020024A136801331360704700BF87
:103EC000EC0A0020014B1868704700BF6C0B002003
:103ED000F8B53B4B1B68002B66D13A4B1D6801358A
:103EE0001D60D5B9384B1B681B6853B14FF05003A8
:103EF00072B683F31188BFF36F8FBFF34F8F62B633
:103F0000FEE7314A1168314B186810601960304A79
:103F1000136801331360FFF777FD2E4B1B68AB422C
:103F200038D900272C4B1B68DB6A03EB83039A000C
:103F30002A4B9B58012B3CD901273AE00127224B01
:103F40001B681B6843B3204B1B68DB68DC68636835
:103F50009D4226D3261D3046FFF7C4F9A36A1BB144
:103F600004F11800FFF7BEF9E36A1D4A1268934294
:103F700001D91B4A136003EB83039A0031461748AB
:103F80001044FFF78BF9E26A134B1B68DB6A9A4215
:103F9000D4D2D4E70027D2E70E4B4FF0FF321A609D
:103FA000C0E70C4A1360BDE70E4A13680133136083
:103FB00000270D4B1B6803B101273846F8BD00BF31
:103FC000EC0A00206C0B0020780600207C06002004
:103FD000280B0020240B00207406002080060020FF
:103FE000F40A0020E80A0020700B002038B5364B98
:103FF0001B6853B94FF0500372B683F31188BFF3B7
:104000006F8FBFF34F8F62B6FEE700F0BBFE2E4B03
:104010001A68013A1A601B68002B4FD12B4B1B68A2
:104020000BB900244BE00024294B1B681BB3284B21
:10403000DB68DC6804F11800FFF754F9251D2846F9
:10404000FFF750F9E06A234B1B68984201D9214BD6
:10405000186000EB800029461F4B03EB8000FFF740
:104060001DF9E26A1D4B1B68DB6A9A42DCD31C4BCC
:1040700001221A60D8E70CB1FFF7C6FC194B1C6887
:1040800084B9174B1C68D4B14FF0E0234FF0805235
:10409000C3F8042DBFF34F8FBFF36F8F01240EE0E1
:1040A000013C07D0FFF714FF0028F9D00C4B012288
:1040B0001A60F5E70B4B00221A60E2E7002400F0DB
:1040C00087FE204638BD00BFEC0A0020E00A002031
:1040D0002C0B0020F40A002080060020740600202B
:1040E000700B0020E80A002010B5B8B10446114B4F
:1040F0001B6853B14FF0500372B683F31188BFF3BE
:104100006F8FBFF34F8F62B6FEE7FFF7D3FE00213C
:104110002046FFF7C5FDFFF769FF48B94FF0E023E0
:104120004FF08052C3F8042DBFF34F8FBFF36F8F52
:1041300010BD00BFEC0A0020204B1B681BB1204BB8
:1041400001221A6070471E4B00221A601D4B1B682B
:1041500003EB83018A001C498A586AB90BB1013B01
:10416000F6E74FF0500372B683F31188BFF36F8FF9
:10417000BFF34F8F62B6FEE703EB830082000A4471
:1041800050684068506003EB830C4FEA8C020832A1
:10419000114488420BD003EB830291000A4A0A447F
:1041A0005268D168094A1160064A13607047406836
:1041B00062469100044A0A445060ECE7EC0A002091
:1041C000700B0020F40A00208006002074060020F6
:1041D00058B110B50C460A4A11681831FFF769F852
:1041E00001212046FFF75CFD10BD4FF0500372B671
:1041F00083F31188BFF36F8FBFF34F8F62B6FEE773
:104200007406002038B570B10D4614460B4A11688B
:104210001831FFF743F80CB14FF0FF35214628461F
:10422000FFF73EFD38BD4FF0500372B683F311889F
:10423000BFF36F8FBFF34F8F62B6FEE774060020A7
:1042400038B5C368DC6824B304F118052846FFF7C5
:1042500049F8194B1B683BBB251D2846FFF742F860
:10426000E06A164B1B68984201D9144B186000EBAA
:1042700080002946124B03EB8000FFF70FF8E26A3B
:10428000104B1B68DB6A9A4213D901200E4B186051
:1042900038BD4FF0500372B683F31188BFF36F8FB0
:1042A000BFF34F8F62B6FEE729460848FEF7F6FFD8
:1042B000E5E70020ECE700BFEC0A0020F40A00204C
:1042C0008006002074060020700B00202C0B0020BC
:1042D000034B1B680360034B1B684360704700BFC0
:1042E000280B00206C0B0020F8B5C8B10C46054621
:1042F00009B300F047FD1D4B19686B68C81A2268A6
:10430000B2F1FF3F2AD01A4E36682F68B74201D06B
:104310008B4228D9824219D80023236001241EE051
:104320004FF0500372B683F31188BFF36F8FBFF362
:104330004F8F62B6FEE74FF0500372B683F31188D9
:10434000BFF36F8FBFF34F8F62B6FEE75B1A134464
:1043500023602846FFF7BCFF002400E0002400F0A3
:1043600037FD2046F8BD0124F9E700BF6C0B0020A3
:10437000280B0020014B01221A607047700B0020AF
:10438000054B1B6833B1054B1B680BB10020704710
:104390000220704701207047400B0020EC0A0020EB
:1043A00000283FD038B50446204B1B6883420AD012
:1043B0004FF0500372B683F31188BFF36F8FBFF3D2
:1043C0004F8F62B6FEE7036D53B94FF0500372B6DC
:1043D00083F31188BFF36F8FBFF34F8F62B6FEE791
:1043E000013B0365C16AC26C91421DD00BB1002034
:1043F00038BD051D2846FEF775FFE06CE062C0F190
:104400003803A3610A4B1B68984201D9084B186016
:1044100000EB80002946074B03EB8000FEF73EFFD0
:104420000120E5E7002070470020E1E77406002046
:10443000F40A002080060020064B1A6813682BB986
:104440000123036023B9D368186870470023F8E795
:1044500000207047740B002008B541600061914254
:104460000CD8D21A83699A4201D3012008BD011DDC
:104470000B4B1868FEF71DFF0020F7E79A422CBF90
:1044800000220122994238BF00220AB10120EDE743
:10449000011D044B1868FEF70CFF0020E6E700BF83
:1044A000780B0020740B002030B583B000F06AFC5C
:1044B000114B1B681BB100F08BFC03B030BD0F4DDE
:1044C0002846FEF7DDFE0E4C2046FEF7D9FE0D4BCA
:1044D0001D600D4B1C60002300930C4B0C4A1021F7
:1044E0000A20FFF707F8044B18600028E3D00949B9
:1044F000FFF74CFADFE700BF980C00201C0C0020EF
:10450000300C0020740B0020780B0020480C002099
:104510007C0B00205861000810B588B0FFF7C4FF7D
:10452000134B1B68CBB100240594069407AA06A977
:1045300005A800F095FA059B0293069B01930223C0
:1045400000932346079A0B490B48FFF7EBFB0B4BF5
:10455000186010B1012008B010BD4FF0500372B6C2
:1045600083F31188BFF36F8FBFF34F8F62B6FEE7FF
:10457000980C002060610008994800089C0C0020FD
:10458000B8B19C4603461948006868B300B585B0C9
:1045900000910192029305291EDCFFF7F1FE02282B
:1045A00012D000231A46694610480068FEF7FFFF44
:1045B00017E04FF0500372B683F31188BFF36F8F8B
:1045C000BFF34F8F62B6FEE70023069A694607489D
:1045D0000068FEF7ECFF04E0002362466946FFF73F
:1045E000B2F805B05DF804FB00207047980C00207D
:1045F00070B582B01C4B1B681A6872B3DB681E680A
:10460000DC68251D2846FEF76DFE236A2046984784
:1046100094F8283013F0040FECD0A36933449E4281
:1046200007D26360246129460F4B1868FEF741FEEC
:10463000E0E7002100910B4632462046FFF7A0FF3D
:104640000028D7D14FF0500372B683F31188BFF31F
:104650006F8FBFF34F8F62B6FEE7044A10680249BE
:104660000860136002B070BD740B0020780B00204E
:1046700038B50546FFF726FC0446074B1B68834206
:1046800005D800232B60044B1C60204638BDFFF783
:10469000AFFF01232B60F6E7440C002070B582B019
:1046A00006460D4618490968C968CC68201DFEF702
:1046B00019FE94F828C01CF0040F08D12CF0010C4E
:1046C00084F828C0236A2046984702B070BDA169CB
:1046D00033462A4631442046FFF7BEFE0028F1D07B
:1046E000002100910B4632462046FFF749FF002883
:1046F000E8D14FF0500372B683F31188BFF36F8F88
:10470000BFF34F8F62B6FEE7740B002070B582B026
:1047100006460C46FFF7CEFB01A8FFF7A9FF019B59
:104720003BBB0546B04228BF002C19D024B1134A28
:1047300012681268DAB901242246711B104B1868FE
:10474000FFF738F9FFF752FCA8B94FF0E0234FF01C
:104750008052C3F8042DBFF34F8FBFF36F8F0AE071
:10476000FFF744FC29463046FFF798FF03E01C465C
:10477000E2E7FFF73BFC02B070BD00BF780B002002
:10478000980C002010B588B002E0049B002B0FDAD3
:10479000002204A93F4B1868FFF743F8002877D0A0
:1047A000049B002BF1DA07990698059B9847ECE7E4
:1047B000069C636913B1201DFEF794FD03A8FFF763
:1047C00057FF049B092BE3D8DFE803F0050505320A
:1047D00039540505323994F8283043F0010384F840
:1047E0002830059BA169024619442046FFF734FE94
:1047F0000028CDD0236A2046984794F8283013F03B
:10480000040FC5D0A269002100910B46059802440F
:104810002046FFF7B5FE0028BAD14FF0500372B61C
:1048200083F31188BFF36F8FBFF34F8F62B6FEE73C
:1048300094F8283023F0010384F82830A8E794F88E
:10484000283043F0010384F828300599A16131B183
:104850000346024601442046FFF7FEFD98E74FF06D
:10486000500372B683F31188BFF36F8FBFF34F8F7E
:1048700062B6FEE794F8283013F0020F04D023F05C
:10488000010384F8283083E7204600F0D5F97FE75C
:1048900008B010BD980C002000B583B001A8FFF748
:1048A000CBFD0199FFF732FFFFF76CFFF6E7000041
:1048B000EFF305837BB9EFF3108313B9EFF31183A3
:1048C0001BB1094B1B68022B08D0074B186840B975
:1048D00001221A6070476FF0050070476FF0050005
:1048E00070474FF0FF307047FC0E002008B5EFF323
:1048F0000583A3B9EFF3108313B9EFF311831BB151
:104900000B4B1B68022B0DD0094B1B68012B0CD1E4
:10491000074B02221A60FFF77BFA002008BD6FF0F8
:104920000500FBE76FF00500F8E74FF0FF30F5E713
:10493000FC0E0020F0B587B000240594EFF3058449
:10494000002C38D1EFF3108313B9EFF311831BB1AF
:104950002D4B1B68022B2ED068B322B315689369C8
:1049600003B918235C1E372C49D8546814F0010F82
:1049700047D156696EB14FEA960C94682CB1D7684E
:104980005B2F02D9176907B1C6B92CB14FF0FF34BC
:104990000EE04FF0800CF0E7D4688CB9146994B144
:1049A0004FF0FF3404E01546002418234FF0800C2C
:1049B000012C0AD0ACB1059807B0F0BD0124F7E78F
:1049C0004FF0FF34F4E70024F2E714699268029292
:1049D000019400930B4662462946FFF7A3F9059020
:1049E000E9E705AA019200930B461FFA8CF22946CB
:1049F000FFF7D9F90128DED000230593DBE700207B
:104A0000DAE70020D8E700BFFC0E002008B5EFF37E
:104A1000058383B9EFF3108313B9EFF311831BB14F
:104A2000084B1B68022B09D008B9002008BDFFF70E
:104A30005BFB0020FAE76FF00500F7E76FF0050079
:104A4000F4E700BFFC0E0020034B0360034B0B6038
:104A500080231360704700BFA00E0020A00C002030
:104A6000034B0360034B0B604FF48073136070477C
:104A700000130020000F0020124A12F0070F1ED072
:104A8000D11D21F00701C1F5705313440A460E48A9
:104A90000260002141601344083B23F007030B48E8
:104AA000036059601960991A51601360084B1960CE
:104AB000084B1960084B4FF000421A6070474FF4E2
:104AC0007053E4E7601300206C4F00205C1300205B
:104AD000684F0020644F0020604F0020164B1A469C
:104AE0001B688342FBD3516802EB010C844509D05B
:104AF000416800EB010C634509D00360904219D076
:104B0000106070474068014451601046F0E710B4EF
:104B10000A4C2468A3420BD05B68194441601368B7
:104B20001B680360904200D010605DF8044B704732
:104B30000460F7E7704700BF6C4F00205C13002053
:104B400070B50546FFF7B6F9364B1B68A3B1364B77
:104B50001B681D424CD135B1083515F0070F02D046
:104B600025F007050835002D44D0304B1B68AB42BB
:104B700051D32F4A146804E0FFF77EFFE7E722468F
:104B80001C466368AB4202D22368002BF7D1254B49
:104B90001B68A34241D01668083623681360636817
:104BA0005B1B102B12D9601910F0070F0AD04FF0C1
:104BB000500372B683F31188BFF36F8FBFF34F8F2B
:104BC00062B6FEE743606560FFF788FF62681749D9
:104BD0000B689B1A0B60174909688B4201D2154973
:104BE0000B60114B1B68134363600023236002E0DA
:104BF000002600E00026FFF7F9F916F0070F0ED0A7
:104C00004FF0500372B683F31188BFF36F8FBFF379
:104C10004F8F62B6FEE70026EDE70026EBE7304651
:104C200070BD00BF5C130020604F0020644F002067
:104C30006C4F0020684F0020002834D038B504465F
:104C4000A0F1080550F8043C174A126813420AD133
:104C50004FF0500372B683F31188BFF36F8FBFF329
:104C60004F8F62B6FEE750F8081C51B14FF0500369
:104C700072B683F31188BFF36F8FBFF34F8F62B6A5
:104C8000FEE723EA020340F8043CFFF713F954F867
:104C9000041C064A13680B4413602846FFF71EFFE6
:104CA000FFF7A4F938BD7047604F0020644F002023
:104CB00082B0002301930F4B1B68B3F1FF3F0AD072
:104CC0004FF0500372B683F31188BFF36F8FBFF3B9
:104CD0004F8F62B6FEE74FF0500372B683F3118830
:104CE000BFF36F8FBFF34F8F62B6019B002BFCD0D9
:104CF00002B070470C00002008480068006880F38C
:104D000008884FF0000080F3148862B661B6BFF3E4
:104D10004F8FBFF36F8F00DF00BF000008ED00E092
:104D2000DFF80C00016841F4700101607047000079
:104D300088ED00E04FF0807340F8043C21F0010161
:104D400040F8081C054B40F80C3C40F8202C6FF054
:104D5000020340F8243C4438704700BFB14C0008BF
:104D6000074B19680868B0E8F04F80F30988BFF373
:104D70006F8F4FF0000080F311887047AFF3008011
:104D8000740600204FF0500372B683F31188BFF30E
:104D90006F8FBFF34F8F62B60C4A136801331360F5
:104DA000012B00D070474FF0E023D3F8043D13F0FF
:104DB000FF0FF7D04FF0500372B683F31188BFF3A3
:104DC0006F8FBFF34F8F62B6FEE700BF0C0000206D
:104DD0000A4B1B6853B94FF0500372B683F3118826
:104DE000BFF36F8FBFF34F8F62B6FEE7013B034AFD
:104DF00013600BB983F31188704700BF0C000020CB
:104E0000EFF30980BFF36F8F154B1A681EF0100F78
:104E100008BF20ED108A20E9F04F10602DE909004D
:104E20004FF0500072B680F31188BFF34F8FBFF37D
:104E30006F8F62B6FFF780F94FF0000080F31188A2
:104E400009BC19680868B0E8F04F1EF0100F08BFE1
:104E5000B0EC108A80F30988BFF36F8F704700BFF2
:104E60007406002008B54FF0500372B683F3118822
:104E7000BFF36F8FBFF34F8F62B6FFF729F828B1EA
:104E80004FF0E0234FF08052C3F8042D002383F34A
:104E9000118808BD4FF0E022002313619361054B98
:104EA0001B680549A1FB03139B09013B53610723C1
:104EB0001361704708000020D34D621030B583B0F5
:104EC0002F4B1A78D2B20192FF221A701B78DBB2F4
:104ED0008DF803309DF8033003F05003294A137016
:104EE000294B07221A6009E0274A1368013B136027
:104EF0009DF803305B00DBB28DF803309DF8033082
:104F000013F0800FF0D1204B1B68032B0AD04FF019
:104F1000500372B683F31188BFF36F8FBFF34F8FC7
:104F200062B6FEE71B02184A136003F4E0631360E5
:104F3000019BDBB2124A13704FF0E024D4F8203DFD
:104F400043F47003C4F8203DD4F8203D43F070438F
:104F5000C4F8203DFFF79EFF00250C4B1D60FFF7B6
:104F6000DFFED4F8343F43F04043C4F8343FFFF74A
:104F7000C3FEFFF7E1F8FFF79BFE284603B030BD04
:104F800000E400E0744F0020784F00200C00002067
:104F9000EFF305830F2B11D9134A9B5CDBB2134A45
:104FA00012789A420AD94FF0500372B683F31188EF
:104FB000BFF36F8FBFF34F8F62B6FEE74FF0E02372
:104FC000D3F80C3D03F4E063094A126893420AD90E
:104FD0004FF0500372B683F31188BFF36F8FBFF3A6
:104FE0004F8F62B6FEE77047F0E300E0744F002099
:104FF000784F0020DFF834D00D480E490E4A0023C8
:1050000002E0D458C4500433C4188C42F9D30B4A7C
:105010000B4C002301E013600432A242FBD3FEF7E5
:1050200025F900F011F8FBF781FE7047000005201C
:1050300000000020740000201062000874000020AE
:10504000904F0020FEE7000070B50D4D0D4C641B25
:10505000A4100026A64209D10B4D0C4C00F0FAFF1B
:10506000641BA4100026A64205D170BD55F8043B70
:1050700098470136EEE755F8043B98470136F2E7CA
:105080000862000808620008086200080C62000854
:105090000A44914200F1FF3300D1704710B511F876
:1050A000014B03F8014F9142F9D110BD0244034670
:1050B000934200D1704703F8011BF9E70FB40A4B84
:1050C00013B51C6824B1A36913B9204600F066F833
:1050D00005AB049AA1680193204600F0BDF902B027
:1050E000BDE8104004B0704710000020002310B548
:1050F0000446C0E90033C0E904338360818143661C
:10510000C2818361194608225C30FFF7CFFF054B4F
:105110006362054BA362054BE362054B2462236384
:1051200010BD00BF015A0008235A00085B5A00084E
:105130007F5A0008014900F0AFB800BF595D000870
:1051400070B568224D1E55430E4605F1740100F0FE
:10515000E5F8044640B10021C0E900160C30A0601B
:1051600005F16802FFF7A2FF204670BD014800F07C
:10517000B3B800BF7D4F0020014800F0AEB800BFBB
:105180007D4F0020014800F0A7B800BF7E4F0020EF
:10519000014800F0A2B800BF7E4F002010B50446C1
:1051A000FFF7F0FFA3691BB1BDE81040FFF7F0BFA8
:1051B000C4E912332365134B134A1B68A262A3424E
:1051C00004BF0123A361204600F020F86060204660
:1051D00000F01CF8A060204600F018F80022E06003
:1051E00004216068FFF782FFA06801220921FFF710
:1051F0007DFFE06802221221FFF778FF0123A361FF
:10520000D2E700BF6861000835510008F8B50746CD
:10521000FFF7ACFF1E4B1E68B36913B93046FFF7AA
:10522000BDFF4836D6E90134013B03D533680BB3E3
:105230003668F7E7B4F90C50D5B9164BE36004F1C2
:105240005800656600F047F8FFF796FFC4E901557E
:10525000C4E904552560A5610822294604F15C00D3
:10526000FFF724FFC4E90D55C4E912552046F8BDE7
:105270006834D9E704213846FFF762FF04463060FE
:105280000028D5D1FFF778FF0C233B60EEE700BF85
:10529000686100080100FFFF2DE9F84306468846D3
:1052A00000F148040027D4E90195B9F1010905D5B9
:1052B0002468002CF7D13846BDE8F883AB89012B70
:1052C00007D9B5F90E30013303D029463046C0471F
:1052D00007436835E9E770477047704770B50E4E71
:1052E0000C463168054611B900F07AFB3060214662
:1052F000284600F075FB431C0AD0C41C24F00304AC
:10530000A04207D0211A284600F06AFB013001D1E3
:105310004FF0FF34204670BD844F00202DE9F0414E
:10532000CD1C25F0030508350C2D38BF0C25002DAC
:10533000074601DBA94205D90C233B600026304615
:10534000BDE8F0812E4E00F0BBFD33681C4634BB37
:1053500029463846FFF7C2FF431C04464DD1346846
:105360002646002E40D123683146384604EB030818
:1053700000F036FB80453AD1216803356D1A25F0DF
:10538000030508350C2D38BF0C2529463846FFF794
:10539000A5FF01302BD023682B4423600EE0226848
:1053A000521B1ED40B2A16D96119A342256018BFBF
:1053B0005960636808BF316062514B60384604F140
:1053C0000B0600F083FD26F00706231DF21AB6D067
:1053D0009B1BA350B3E76268A3420CBF32605A60C4
:1053E000ECE723466468B2E734467668B9E70C23F5
:1053F0003B60384600F06AFDA1E72560DEE700BFAC
:10540000804F00209368013B002B10B4936008DAB2
:105410009469A34201DB0A2903D15DF8044B00F033
:1054200033BB1368581C1060197008465DF8044BB4
:105430007047F8B506460F461446D518AC4201D160
:10544000002007E014F8011B3A463046FFF7DAFF68
:10545000431CF3D1F8BD00002DE9F04F0D469DB07F
:1054600014469846064618B183690BB9FFF796FEB5
:10547000894B9D421BD175686B6ED90705D4AB89EA
:105480009A0502D4A86DFFF727FFAB891B0701D54A
:105490002B69EBB92946304600F05AFBC0B16B6E60
:1054A000DC070ED54FF0FF301DB0BDE8F08F7B4B11
:1054B0009D4201D1B568DFE7794B9D4208BFF56891
:1054C000DAE7AB899805EDD4A86DFFF706FFE9E7A9
:1054D0000023099320238DF82930CDF80C80302348
:1054E000DFF8C0818DF82A304FF0010923469A4633
:1054F00013F8012B0AB1252AF9D1BAEB040B0BD012
:105500005B46224629463046FFF793FF013000F004
:10551000AA80099A5A4409929AF80030002B00F0A8
:10552000A28000234FF0FF32CDE905230AF1010AE2
:10553000049307938DF853301A935446052214F8B8
:10554000011B5848FAF764FE049AD8B9D10644BF43
:1055500020238DF85330130744BF2B238DF853308D
:105560009AF800302A2B15D0079A544600204FF0A5
:105570000A0C214611F8013B303B092B4ED9B0B142
:10558000079214E0A0EB080309FA03F31343049312
:10559000A246D2E7039B191D1B680391002BBBBFDA
:1055A0005B4242F0020207930793B8BF049223784C
:1055B0002E2B0CD163782A2B35D1039B1A1D1B6827
:1055C0000392002BB8BF4FF0FF3302340593DFF88E
:1055D000E4A0217803225046FAF71AFE40B1402396
:1055E000A0EB0A0003FA00F0049B03430134049388
:1055F00014F8011B2C488DF828100622FAF708FE33
:1056000000283FD0294B1BBB039B073323F0070324
:1056100008330393099B3B44099367E70CFB023271
:105620000C460120A5E700230134059319464FF0ED
:105630000A0C204610F8012B303A092A03D9002B16
:10564000C5D00591C3E70CFB012104460123F0E717
:1056500003AB00932A46164B04A93046AFF30080F3
:105660000746781CD6D16B6ED90705D4AB899A054D
:1056700002D4A86DFFF731FEAB895B063FF512AF90
:10568000099811E703AB00932A46094B04A9304659
:1056900000F080F8E4E700BF8C610008AC6100080E
:1056A0006C610008CC610008D661000800000000B1
:1056B00033540008D26100082DE9F0471646994698
:1056C0008A680B69DDF820809342B8BF13463360C7
:1056D00091F8432007460C460AB101333360236832
:1056E000990642BF336802333360256815F006051A
:1056F00006D104F1190AE36832689B1AAB4226DC32
:1057000094F84320131E226818BF012392062BD45D
:1057100004F1430249463846C04701301ED0236891
:10572000E568326803F00603042B08BFAD1AA368CE
:1057300022690CBF25EAE57500259342C4BF9B1A78
:10574000ED1800261A34B5421AD1002008E00123D2
:10575000524649463846C047013003D14FF0FF302A
:10576000BDE8F0870135C6E7E1185A1C302081F802
:105770004300224494F8451082F843100233C7E7EF
:105780000123224649463846C0470130E6D001365B
:10579000D9E700002DE9FF470F7E0C9D782F914639
:1057A00080460C469A4601F1430207D8622F0AD878
:1057B000002F00F0D880582F00F0A38004F142059C
:1057C00084F842703AE0A7F16303152BF6D801A1E3
:1057D00051F823F02D58000841580008BD57000823
:1057E000BD570008BD570008BD57000841580008C4
:1057F000BD570008BD570008BD570008BD57000839
:105800004D590008715800082F590008BD5700086D
:10581000BD5700086F590008BD57000871580008AF
:10582000BD570008BD570008375900082B681A1DDE
:105830001B682A6004F1420584F842300123A3E08A
:1058400020682968060601F104030AD50E682B605A
:10585000002E03DA2D23764284F843305E480A2373
:1058600019E00E682B6010F0400F18BF36B2EFE75A
:105870002B682068191D2960010601D51E6802E009
:105880004606FBD51E8854486F2F0CBF08230A23F9
:10589000002184F843106568A560002DA2BF21682F
:1058A00021F0040121600EB9002D4DD01546B6FB44
:1058B000F3F103FB1167C75D05F8017D3746BB4275
:1058C0000E46F4D9082B0BD12368DE0708D52369CF
:1058D00061689942DEBF302305F8013C05F1FF35D0
:1058E000521B2261CDF800A04B4603AA2146404638
:1058F000FFF7E2FE01304CD14FF0FF3004B0BDE8BD
:10590000F087354881F845702968236851F8046BA1
:1059100029601D0614D5DF0744BF43F02003236030
:105920001EB9236823F0200323601023B0E7236807
:1059300043F0200323607823284884F84530E3E7C8
:10594000590648BFB6B2E6E71546BBE72B6826689E
:105950006169181D286035061B6801D5196002E0D1
:105960007006FBD51980002323611546BAE72B6822
:105970001A1D2A601D68626800212846FAF748FC53
:1059800008B1401B606063682361002384F84330E2
:10599000A8E723692A4649464046D0470130ABD0A4
:1059A00023689B0713D4E068039B9842B8BF18464E
:1059B000A4E70123324649464046D04701309BD0F8
:1059C0000135E36803995B1AAB42F2DCEBE7002593
:1059D00004F11906F5E700BFDD610008EE6100087B
:1059E00038B5064D0023044608462B6000F01CFB2A
:1059F000431C02D12B6803B1236038BD884F0020BF
:105A000010B50C46B1F90E1000F0B2FA0028ABBF89
:105A1000636DA3891B1823F48053ACBF6365A38116
:105A200010BD2DE9F0411F468B89DB0505460C466C
:105A3000164605D5B1F90E100223002200F0C8F970
:105A4000A389B4F90E1023F48053A38132463B4658
:105A50002846BDE8F04100F069B810B50C46B1F930
:105A60000E1000F0B5F9431CA38915BF606523F43F
:105A7000805343F48053A38118BFA38110BDB1F9B3
:105A80000E1000F0D3B80000F8B50E4614460546D7
:105A900018B183690BB9FFF781FB214B9C422BD1D5
:105AA0006C68A369A360A3891A072FD523696BB318
:105AB00023692068C01A6369F6B28342374604DC62
:105AC0002146284600F048F930BBA368013BA3609B
:105AD00023685A1C22601E7063690130834204D01F
